:020000040000FA
:10000000020B32022003FFFFFFFFFF02200BFFFF66
:10001000FFFFFF0206FCFFFFFFFFFF02201BFFFFA9
:10002000FFFFFF022023FFFFFFFFFF02202BFFFF48
:10003000FFFFFF022033FFFFFFFFFF020755FFFF17
:10004000FFFFFF022043FFFFFFFFFF02204BFFFFE8
:10005000FFFFFF022053FFFFFFFFFF02205BFFFFB8
:10006000FFFFFF022063FFFFFFFFFF02206BFFFF88
:10007000FFFFFF022073FFFFFFFFFF02207BFFFF58
:10008000FFFFFF022083FFFFFFFFFF02208B002006
:10009000000090200000932000000100000000C834
:1000A00003000000000000000400FFFFFFFF74F7E2
:1000B0001208AF74FF120AC17E008033900384E0FF
:1000C000F8851882851983E068700D900382E064DA
:1000D0004D70051202EAE9FE900385E4F090038773
:1000E000F0851882851983E0F8900384E068F07C3D
:1000F000017D00851882851983AA82AB831204DAF8
:100100008B09EA450970030201B2E0C0E090038761
:10011000E0F8900385E0FAE82AF8E4340012047667
:10012000D0E0F0900387E0601114602014603E146A
:10013000604E14606414608480A7851882851983DA
:10014000E064FE709C90038774018094900384E4C3
:10015000F0851882851983E0900386F0C39480901F
:1001600003874004E40200E074020200E085188284
:10017000851983E0900382F090038774030200E006
:10018000851882851983E0900383F0900386E060F0
:100190001990038774040200E0900385E004F0F8EE
:1001A000900386E06860030200E190038774050213
:1001B00000E0EEF97401120A8E7F02020A1474ED57
:1001C0001208AF74FF120AC1750804750900780897
:1001D000120B1212048E120A8E900388E0F4700340
:1001E000A3E0F4600A900388120488E849700302CF
:1001F00002DE90038AE0687003A3E06970030202E4
:10020000BA7508009005997810120B23800A9005A2
:100210009D7810120AD7604D750A01750B00780A97
:10022000120B127402120B5DAC82AD8385100A852D
:10023000110BAA0AE50B5407FB8A0C85110D8512D8
:100240000E85130F740B780C120AA8A90C120498CF
:10025000120A8E851882E0F9AA08AB0912049E8A58
:10026000088B0980089005A17810120B239005A532
:100270007810120AFF9005A97810120A54508FE4E2
:10028000F912049EE4F912049E90038AEAF0A3EBAB
:10029000F07508017509007808120B127C887D033F
:1002A0007A247B081208347402120A8E75080478C6
:1002B00008120B1212048E120A8E90038812048800
:1002C000A3E0687003A3E0697014900388E0F47001
:1002D00003A3E0F46008E849600479018002790032
:1002E0007401120A8E7F0C020A1474F31208AF74A0
:1002F000FC120AC1900306E0FAA3E0F8E4C8F9EAA8
:100300002400FEE93408FF750A01880988088E0C6C
:100310008F0D7409780C120B41A90CEEF50CEF54FB
:1003200001F50D900383E014600914602C146067DC
:10033000020422EA450D7003120898750C10750D21
:1003400000780C120B127C087D03EEFAEFFB12080A
:10035000347402120A8E020422E9C39479400675AD
:100360000901020422750A40750B00780A120B126B
:100370007C097D037402780C120AECAA0CAB0D12F6
:100380000498120A8E900307E0A3F0900306E0A3FE
:10039000F0750A43020422750C04750D00780C12E6
:1003A0000B127402120B5DAC82AD83120492120A1E
:1003B0008E7402120B5D120488851882851983E001
:1003C000687003A3E06960411204827402120B5D3D
:1003D000E8F0A3E9F0750C01780C120B127402120C
:1003E0000B5DAC82AD837A247B0812083474021250
:1003F0000A8E750C04780C120B127402120B5DAC91
:1004000082AD83120492120A8E1204827402120BBD
:100410005DE0687003A3E0697005750801800375ED
:100420000907900305E0D2E7F0E509A3F0E50A909B
:100430000303F0744D650AF5097404250AFB7A0379
:100440008004E062090AEAF83395E0120476EAC310
:100450009BA2D265D03340EAE509F074012AFC334F
:1004600095E0FD7A027B0312052DA9087404120A97
:100470008E7F06020A14F9740228F582740339F596
:100480008322851882851983E0F8A3E0F9227C880D
:100490007D037A907B0079041207AF740222C008B2
:1004A000C0097C088A088B09740F7808120B41EA8E
:1004B000C333FAEB33FBE9A2E7500474014AFAE5CF
:1004C00008A2E0500874216AFA74106BFBE9C33388
:1004D000F91CEC70CFD009D0082274F71208AF785D
:1004E000007900802C74942508F58274033400F59B
:1004F00083E08A828B83F0900492E0041205BFC3EC
:1005000094FE4005900492E4F0E8240108E93400E8
:10051000F9900492E0F508A3E065086007C3E89C41
:10052000E99D40C1E8FAE9FB7F02020A1474F8125F
:1005300008AF900595E0FF8F82A882900594E0FEB9
:10054000EFC39EE05011C398F895E0F91206987039
:100550001D78007900802BC398F895E0F9E824FD18
:10056000181818E93400F9C3E89CE99D50E37A00B3
:100570007B008046E004F0439A04E8240108E93453
:1005800000F9C3E89CE99D502D8A828B83E0C0E08E
:10059000900595E0FE74962EF58274043400F58380
:1005A000D0E01205BF900596E4F0900595E0C39465
:1005B000FD40C1E480C0E8FAE9FB7F01020A14F0C3
:1005C0008A828B83A3AA82AB832212060F1201BEFA
:1005D000E96019758600C2AAC28B539AFBC2E90270
:1005E0002000C2AF75C9AB75C95B80FE1206A3C2FD
:1005F000AF75C9AB75C95B80FE781075B60FE5B4F1
:10060000A2E750FAE5BBC39940F118E870ED22C0AB
:1006100082C08353BEFBE59DA2E650FA0078F879CC
:10062000010012069870FA75C600E59E70FC43BE84
:10063000049062707408F0C29043FE01C29143FEC0
:1006400002C29443FE10438F0153F5FE53FFFE5345
:10065000F7FE43F780794A1205F990000174F5F02E
:100660007403F5D575D48C53FF3F85FFFF53F1FE1E
:1006700043F30C53F2F375868075C480900597E4BC
:10068000F0A3F075C2D875C50B75C402438640D27D
:10069000AAD2E9D083D08222E824FF18E934FFF9F6
:1006A000E8492274F11208AF9005AD780C120B23C3
:1006B000794E1205F9D2AF850D099005A5780C1277
:1006C0000AFFE5095440600AA2905004C2908002DB
:1006D000D2901200AEE960DFD290D2919005B1784D
:1006E00008120B23009005B57808120AFFE50845AB
:1006F00009450A450B70ED7F08020A14C0E074F248
:10070000120915900001E064CD700512201380409D
:10071000E064F5703AE5C1C0E0900493E0F87494A9
:1007200028F58274033400F583D0E0F0900492E061
:10073000F8A3E0687006E595900495F0900493E0C6
:1007400004F0C394FE4002E4F0A374C6F0800100FC
:100750007F01020974C0E074F1120915900001E0F4
:1007600064CD700512203B8041E064F5703B90053C
:1007700094E0F8A3E0687009539AFBA37401F08039
:1007800029C2E9900594E0F50874012508F07496F3
:100790002508F58274043400F583E0F5C1900594D2
:1007A000E0C394FE4004E480D5007F020209747423
:1007B000F51208AF8908740B120B5DE0FEA3E0FF91
:1007C000740F5508F50A750B00740B780A120AECC1
:1007D000EA2400F8EB3480F9E82400E9350BF9E568
:1007E000C7F509A2AFE433F50AC2AFE508C4540F58
:1007F000FAE5C754F84AF5C7801C88828983E08CE3
:10080000828D83F088828983A3A882A9838C828DBC
:1008100083A3AC82AD83EEFAEFFBEA24FF1EEB3438
:10082000FFFFEA4B70D48509C7E50AA2E092AF7FCB
:1008300004020A1474F71208AF7409120B5DE0F594
:1008400008A3E0F509ED90038CF0ECA3F0A374622B
:10085000F0A37473F0A3E0541FF0E508333354FCA5
:10086000A3F074067808120B41E508900390F0900D
:1008700003927412F0A37442F075D1FE75D601EAAA
:10088000906271F0EBA3F0906270E0D2E1F0E0A230
:10089000E740FB7F02020A14C082C083E9C33390A1
:1008A0006272F0906270E0D2E0F0D083D0822225B4
:1008B00018C582C0E0E51934FFC583C0E0E518C360
:1008C000958224F910AF08858319858218800885E0
:1008D0008319858218D2AFCEF0A3E520F0A3780863
:1008E000E608F0A3DEFAEFF0A3E58124FBF8E608C2
:1008F000F0A3E608F0A30808E608F0A3E608F0A3D2
:1009000015811581D0E0FED0E0F815811581E8C091
:10091000E0EEC0E022C0D02518C582C0E0E5193461
:10092000FFC583C0E0E518C3958224F310AF0885A6
:1009300083198582188008858319858218D2AFC8EB
:10094000F0A3E9F0A3EAF0A3EBF0A37908E709F03C
:10095000A3D8FAECF0A3EDF0A3EEF0A3EFF0A3D050
:10096000E0F0A3D0E0F0A3D0E0F0A3E520F0A3E511
:10097000F0F0A322851983851882E0C0E0A3E0F996
:10098000A3E0FAA3E0FBA37808E0F608A3DFFAE00F
:10099000FCA3E0FDA3E0FEA3E0FFA3E0C0E0A3E032
:1009A000C0E0A3E0F5D0A3E0F520A3E0A3F5F010AC
:1009B000AF08858319858218800885831985821878
:1009C000D2AFD082D083D0E0F8D0E032120B6CB935
:1009D0000003020A0EE4900302789879038002F083
:1009E000A3D8FCD9FA900599AA82AB8390008E789F
:1009F0002179018015E493A3AC82AD838A828B8335
:100A0000F0A3AA82AB838C828D83D8E9D9E7120543
:100A1000CA120B67851983851882E0A3FEE0A3F54F
:100A2000207808E0A3F608DFFAE0A3FFE0A3C0E027
:100A3000E0A3C0E0E0A3C0E0E0A3C0E010AF088501
:100A400082188583198008858218858319D2AFD0D2
:100A500083D08222C008C3E096F50808A3E096423E
:100A60000808A3E096420808A3E09645087001D361
:100A7000D008222518F58210AF08F5184002151984
:100A80008008F51840021519D2AF85198322C0D00D
:100A9000251810AF08F518500205198008F51850F0
:100AA000020519D2AFD0D0226016080808C6C313B9
:100AB000C618C613C618C613C618C613C6D5E0EAAC
:100AC00022251810AF08F518400215198008F518EE
:100AD00040021519D2AF22E066701008A3E06670DC
:100AE0000A08A3E066700408A3E06622700422608E
:100AF0000D18C6C333C608C633C6D5E0F41822E0C5
:100B000026F608A3E036F608A3E036F608A3E0369A
:100B1000F62274028000C0E0F404120A73D0E012DE
:100B20000B5022E0F608A3E0F608A3E0F608A3E0E5
:100B3000F62275D0007581407518027519030209F7
:100B4000CC600C08C6C313C618C613C6D5E0F42281
:100B5000CAC0E0E6F0A308DAFAD0E0FA222518F5D8
:100B600082E43519F5832200000080FB790122FF21
:100B7000FFFFFFFFFFFFFFFFFFFFFFFFFFFFFFFF85
:100B8000FFFFFFFFFFFFFFFFFFFFFFFFFFFFFFFF75
:100B9000FFFFFFFFFFFFFFFFFFFFFFFFFFFFFFFF65
:100BA000FFFFFFFFFFFFFFFFFFFFFFFFFFFFFFFF55
:0400000500000B32BA
:00000001FF
